:020000040800F2
:10000000884C002011050008190300081B03000894
:100010001F03000823030008270300080000000056
:100020000000000000000000000000002B0300089A
:100030002D030008000000002F0300082905000818
:100040002B0500082B0500082B0500082B050008D0
:100050002B0500082B0500080D2800082B050008BB
:100060002B0500082B0500082B0500082B050008B0
:100070002B0500082B0500082B0500082B050008A0
:100080002B0500082B0500082B0500082B05000890
:100090002B0500082B0500082B0500082B05000880
:1000A0002B0500082B0500082B0500082B05000870
:1000B0002B0500082B0500082B0500082B05000860
:1000C0002B0500082B0500082B0500082B05000850
:1000D0002B050008231400082B0500082B05000839
:1000E0002B0500082B0500082B05000800F002F87E
:1000F00000F03AF80AA090E8000C82448344AAF188
:100100000107DA4501D100F02FF8AFF2090EBAE885
:100110000F0013F0010F18BFFB1A43F0010318473B
:100120000828000028280000103A24BF78C878C1A9
:10013000FAD8520724BF30C830C144BF04680C60ED
:10014000704700000023002400250026103A28BF35
:1001500078C1FBD8520728BF30C148BF0B60704739
:100160001FB51FBD10B510BD02F098FB1146FFF77B
:10017000F7FF00F086F802F0CAFB03B4FFF7F2FFC6
:1001800003BC01F0F3F80000224B19680868B0E8DE
:10019000F00F80F30988BFF36F8F4FF0000080F3FA
:1001A00011884EF00D0E70470000000006480068F0
:1001B000006880F3088862B661B6BFF34F8FBFF363
:1001C0006F8F00DF00BF00BF08ED00E0EFF3098094
:1001D000BFF36F8F0F4B1A6820E9F00F106008B55E
:1001E0004FF0BF0080F31188BFF34F8FBFF36F8FC5
:1001F00001F01FFD4FF0000080F31188BDE80840BA
:1002000019680868B0E8F00F80F30988BFF36F8FB2
:10021000704700BF40000020EFF3058070470000EA
:1002200006E025A002F0FCFA4FF4487001F055FCFE
:10023000F7E706E023A002F0F3FA4FF4FA7001F0BA
:100240004CFCF7E71CB5044602F073FA2048022183
:1002500000233222CDE900101EA1214801F01EFA30
:100260002048032100233222CDE900101EA121489D
:1002700001F014FA2048006801F05EFA02F068FA12
:100280001CBD1CB51DA002F0CBFA022001F04AF8FB
:1002900000F0DEFF4FF4165001F077F81648012108
:1002A00000238022CDE9001017A11A4801F0F6F9C9
:1002B00001F022FE00201CBD6C6564315F74617327
:1002C0006B0D0A006C6564305F7461736B0D0A001E
:1002D000040000206C6564305F7461736B00000083
:1002E00033020008080000206C6564315F7461739C
:1002F0006B00000021020008000000206D61696EA3
:100300002073746172740D0073746172745F746130
:10031000736B000045020008704700BFFEE700BF96
:10032000FEE700BFFEE700BFFEE77047704770477B
:100330000CB50020019000906C48006840F48030BB
:100340006A49086000BF6948006800F40030009006
:100350000198401C0190009818B90198B0F5A06F61
:10036000F1D16248006800F4003010B10120009023
:1003700001E0002000900098012843D15C4800680B
:1003800040F010005A4908600846006820F0030059
:1003900008600846006840F0020008605348406862
:1003A000524948600846406848600846406840F442
:1003B000806048600846406820F47C104860084629
:1003C000406840F4E81048600846006840F08070DB
:1003D000086000BF4548006800F000700028F9D0B0
:1003E0004248406820F003004049486008464068A1
:1003F00040F00200486000BF3C48406800F00C003C
:100400000828F9D10CBD10B5FFF792FF10BD10B54B
:100410003648006840F001003449086008464068EA
:10042000344908403149486008460068324908406C
:100430002E4908600846006820F4802008600846BD
:10044000406820F4FE0048604FF41F008860FFF70A
:10045000DAFF4FF000602949086010BD10B5002197
:1004600000200022214B5B6803F00C0121B104291C
:1004700006D0082928D107E0214B224C236027E031
:100480001F4B204C236023E0184B5B6803F4701073
:10049000164B5B6803F48032022303EB904022B9D1
:1004A000194B4343174C23600DE0104B5B6803F47A
:1004B000003323B1144B4343124C236003E0104B31
:1004C0004343104C236003E00D4B0E4C236000BFF0
:1004D00000BF064B5B68C3F303130C4CE15C094B94
:1004E0001B68CB40074C236010BD00000010024089
:1004F000002002400000FFF8FFFFF6FE08ED00E0DC
:1005000000127A000C00002000093D0010000020BD
:100510000948804709480047FEE7FEE7FEE7FEE797
:10052000FEE7FEE7FEE7FEE7FEE7FEE704480549D3
:10053000054A064B704700000F040008ED00000854
:1005400088460020884C00208848002088480020E9
:1005500031490143314A1160704770B500210023D1
:100560000F22C47804B32D4C246804F4E064C4F56D
:10057000E064210AC1F10403CA40447804FA03F19B
:100580008478144021430901254C0678A15504784C
:1005900004F01F050124AC4005786D11AD0005F194
:1005A000E025C5F8004109E0047804F01F050124A6
:1005B000AC401C4D0678761145F8264070BD1A4AAD
:1005C0000A400243154B1B1F1A60704739B1134A8A
:1005D000121D12680243114B1B1D1A6006E00F4AE0
:1005E000121D126882430D4B1B1D1A6070470428B0
:1005F00008D14FF0E021096941F004014FF0E022F9
:10060000116107E04FF0E021096921F004014FF08A
:10061000E0221161704700000000FA050CED00E0D7
:1006200000E400E080E100E080FFFF1F10B5044619
:10063000CC48844208D10121042000F02DFB002188
:10064000042000F029FB46E0C748844208D101217C
:10065000082000F021FB0021082000F01DFB3AE0FB
:10066000C248844208D10121102000F015FB00216E
:10067000102000F011FB2EE0BD48844208D101217A
:10068000202000F009FB0021202000F005FB22E0E3
:10069000B848844208D10121402000F0FDFA002131
:1006A000402000F0F9FA16E0B348844208D1012155
:1006B000802000F0F1FA0021802000F0EDFA0AE03D
:1006C000AE48844207D10121801500F0E5FA0021EF
:1006D000A01500F0E1FA10BD10B50121084600F0A8
:1006E000DBFA0021012000F0D7FA10BD2DE9F0411E
:1006F000024600250026002000230024002791F850
:1007000003C00CF00F0591F803C00CF0100CBCF105
:10071000000F03D091F802C04CEA050591F800C023
:10072000BCF1000F31D0146800202BE04FF0010C19
:100730000CFA00F3B1F800C00CEA03069E4220D187
:1007400083004FF00F0C0CFA03F7BC4305FA03FCCF
:100750004CEA040491F803C0BCF1280F06D14FF015
:10076000010C0CFA00FCC2F814C00AE091F803C0B6
:10077000BCF1480F05D14FF0010C0CFA00FCC2F897
:1007800010C0401C0828D1D31460B1F800C0BCF1DF
:10079000FF0F34DD546800202EE000F1080C4FF00C
:1007A000010808FA0CF3B1F800C00CEA03069E42F7
:1007B00021D183004FF00F0C0CFA03F7BC4305FA6C
:1007C00003FC4CEA040491F803C0BCF1280F05D1E6
:1007D00000F1080C08FA0CF8C2F8148091F803C074
:1007E000BCF1480F07D100F1080C4FF0010808FADE
:1007F0000CF8C2F81080401C0828CED35460BDE825
:10080000F0814FF6FF710180022181700421C170D7
:1008100070470246002093680B400BB1012000E0B6
:10082000002070470146886880B270470246002069
:10083000D3680B400BB1012000E000207047014657
:10084000C86880B2704701617047416170470AB162
:10085000016100E041617047C16070474FF4803230
:100860000A438261816182618269826970470246BE
:100870000020434B18684FF68073184040EA02107E
:1008800008433F4B186070473E49C8617047F0B558
:100890000A46002300240021002500F00046B6F19E
:1008A000004F02D1364EF16901E0354E7168C0F358
:1008B000034583B200F44016B6F5401F08D121F07D
:1008C00070612F4E766826F070662D4F7E6012E0C4
:1008D00000F48016B6F5801F06D1032606FA05F44B
:1008E000A14341F0706106E0460D360103FA06F6B9
:1008F000B14341F0706122B1460D360103FA06F6AC
:10090000314300F00046B6F1004F02D11C4EF161B8
:1009100001E01B4E7160F0BD30B500228B071C0F4B
:100920000F2303FA04F2164B08338C1053F82430CB
:100930009343134C08348D1044F8253023468C1013
:1009400053F824308C07240F00FA04F423430C4C92
:1009500008348D1044F8253030BD0A49DC31086078
:100960007047000000080140000C014000100140E9
:100970000014014000180140001C0140002001400B
:100980000000014000002042DF48006840F0010004
:10099000DD49086008464068DC490840DA4948609B
:1009A00008460068DA490840D749086008460068E8
:1009B00020F4802008600846406820F4FE0048606B
:1009C0004FF41F0088607047CF49096821F48031D7
:1009D000CD4A11601146096821F480211160B0F5FB
:1009E000803F03D0B0F5802F0ED106E0C6490968DC
:1009F00041F48031C44A116007E0C349096841F4F9
:100A0000A021C14A116000E000BF00BF704710B5CF
:100A100001460022002300204A11012A02D1BA4CCB
:100A2000236806E0022A02D1B74C236A01E0B64CE3
:100A3000636A01F01F02012494401C400CB10120A4
:100A400000E0002010BD38B50020009000240025F3
:100A500000BF3120FFF7DBFF05460098401C0090E7
:100A60000098B0F5A06F01D0002DF2D03120FFF733
:100A7000CEFF08B1012400E00024204638BD014625
:100A80000020A14A106820F0F80040EAC100106080
:100A90007047A04908607047024600209A4B58688A
:100AA00020F47C1042EA01031843974B58607047CA
:100AB00098490866704701460020934A506820F024
:100AC00003000843506070478F48406800F00C00F6
:100AD0007047014600208C4A506820F0F00008431F
:100AE0005060704701460020874A506820F4E0605B
:100AF00008435060704701460020834A506820F444
:100B0000605040EAC1005060704729B17E4A527A75
:100B100002437D4B5A7204E07B4A527A82437A4BFD
:100B20005A7270477B49D8310860704701460020EF
:100B3000754A506820F440400843506070470021D7
:100B4000714A20321170704A82F82010012802D0B8
:100B500004280AD104E001216B4A2032117005E01B
:100B60000521694A2032117000E000BF00BF7047C4
:100B70006949086070476449096A0143624A116221
:100B80007047654944390860704730B5002100223C
:100B9000002400235C4D6D6805F00C0121B104298F
:100BA00005D0082923D105E05C4D056022E05B4DAE
:100BB00005601FE0544D6D6805F47012524D6D686C
:100BC00005F48034022505EB92421CB9544D55437F
:100BD00005600BE04C4D6D6805F400351DB1504DBE
:100BE0005543056002E04D4D5543056002E04B4D15
:100BF000056000BF00BF444D6D6805F0F0010909B4
:100C0000484D6B5C0568DD4045603F4D6D6805F4FF
:100C1000E061090A434D6B5C4568DD4085603A4DF3
:100C20006D6805F46051C90A3E4D6B5C4568DD4056
:100C3000C560354D6D6805F44041890B3A4D6B5CDC
:100C4000C568B5FBF3F5056130BD29B12E4A52697F
:100C500002432D4B5A6104E02B4A526982432A4BCE
:100C60005A61704729B1284A92690243264B9A611A
:100C700004E0254A92698243234B9A61704729B167
:100C8000214AD2690243204BDA6104E01E4AD2694C
:100C900082431D4BDA61704729B11B4AD268024377
:100CA000194BDA6004E0184AD2688243164BDA60C6
:100CB000704729B1144A12690243134B1A6104E0C8
:100CC000114A12698243104B1A6170471249403928
:100CD000086070470F49C86470470B49C871704776
:100CE0000948406A40F080700749486270470146F1
:100CF0000020054A92680A400AB1012000E0002065
:100D00007047014988727047001002400000FFF8E8
:100D1000FFFFF6FE000042428004424200127A00C9
:100D200000093D00200000203000002010B50446DE
:100D3000FB48844209D101218803FFF7ADFF002160
:100D40004FF48040FFF7A8FF32E0F648844209D113
:100D500001214804FFF7ADFF00214FF40030FFF7F9
:100D6000A8FF25E0F048844209D101218804FFF75B
:100D7000A0FF00214FF48020FFF79BFF18E0EB4815
:100D8000844209D10121C804FFF793FF00214FF4E9
:100D90000020FFF78EFF0BE0E548844208D10121D7
:100DA0000805FFF786FF00214FF48010FFF781FF51
:100DB00010BD2DE9F04786B005460E460024A24638
:100DC00000BFA1460027B08900B100BF2F462C8A82
:100DD0004CF6FF700440F08804432C82AC894EF638
:100DE000F3100440B08831890843718908430443F3
:100DF000AC81AC8A4FF6FF400440B0890443AC821A
:100E000001A8FFF7C2FEC648874202D1DDF810A054
:100E100001E0DDF80CA0A88900F4004040B10AEB25
:100E2000CA0000EB0A1031684900B0FBF1F807E096
:100E30000AEBCA0000EB0A1031688900B0FBF1F838
:100E40006420B8FBF0F004012009642101FB108943
:100E5000A88900F4004040B1322000EBC900B0FB8B
:100E6000F1F000F00700044308E0322000EB091025
:100E70006421B0FBF1F000F00F0004432C8106B0B8
:100E8000BDE8F0874FF41651016000218180C180D8
:100E900001810C21418100218181704710B50246FA
:100EA0000020108A4FF2FF0318400B884C88234320
:100EB0008C882343CC8823431843108210BD002123
:100EC000018041808180C180704721B1828942F4D4
:100ED0000052828104E082894DF6FF731A408281BC
:100EE0007047F0B50346002400260025002040F698
:100EF0006A17B94200D100BF1846C1F3421401F08D
:100F00001F06012707FA06F5012C01D10C3004E079
:100F1000022C01D1103000E014301AB107682F43C1
:100F2000076002E00768AF430760F0BD1AB1838A2B
:100F30000B43838202E0838A8B4383827047028A59
:100F40004FF6F0731A400282028A0A430282704707
:100F500082894FF2FF731A40828182890A4382811B
:100F6000704721B1828942F00202828104E08289C5
:100F70004FF6FD731A4082817047028A4FF6DF7385
:100F80001A400282028A0A430282704721B1028A11
:100F900042F48042028204E0028A4BF6FF731A4058
:100FA00002827047C1F30802828070470146888838
:100FB000C0F308007047818941F0010181817047C9
:100FC000028BD2B20283028B42EA01220283704773
:100FD000028B02F47F420283028B0A430283704732
:100FE00021B1828A42F02002828204E0828A4FF696
:100FF000DF731A408282704721B1828A42F0100268
:10100000828204E0828A4FF6EF731A408282704730
:1010100021B1828A42F00802828204E0828A4FF67D
:10102000F7731A408282704721B1828942F40042EC
:10103000828103E08289C2F30E028281704721B16E
:10104000828A42F40062828204E0828A4FF2FF7355
:101050001A4082827047828A4FF6FB731A4082825E
:10106000828A0A438282704721B1828A42F0020258
:10107000828204E0828A4FF6FD731A4082827047B2
:1010800002460020B1F5007F00D100BF13880B405D
:101090000BB1012000E00020704701F40072B2F5AE
:1010A000007F00D100BFCA430280704770B502467E
:1010B000002400230025002040F66A16B14200D12A
:1010C00000BFC1F3421501F01F03012606FA03F326
:1010D000012D02D19689334006E0022D02D1168AF5
:1010E000334001E0968A33400C12012606FA04F4DC
:1010F0001688344013B10CB1012000E0002070BD0F
:1011000010B50022002340F66A14A14200D100BFAE
:101110000A1201249440A3B2DC43048010BD0000F5
:10112000003801400044004000480040004C0040AE
:1011300000500040002044490860091D0860091D56
:101140000860091D086041483F4914310860704734
:1011500000213D498279002A3AD00A461268036884
:101160009A430B461A600A1D126803689A430B1DC6
:101170001A60027911440A6803681A430A60324A05
:101180000832126803689A432F4B08331A601A1DFD
:10119000126803689A432C4B0C331A604279102A68
:1011A0000ED11A1F126803681A43274B08331A60BE
:1011B0001A1D126803681A43234B0C331A600DE0A2
:1011C0002149427911440A6803681A430A6005E01C
:1011D000027911440A6803689A430A607047002143
:1011E000016001710C214171002181717047164924
:1011F000103109680143144A1032116070470146EA
:101200000020114A143212680A400AB1012000E09D
:10121000002070470C4914310860704701460020D7
:101220000022094B1B6803EA0102074B14331B68B9
:101230000B4013B10AB1012000E0002070470249C1
:10124000143108607047000000040140FFFF0F00E8
:1012500010B56FF00400FFF7CAF92E4800682E4958
:10126000B0FBF1F02D4908700846007800EB400112
:10127000C1EBC0104FF6FF7101EAC0002849088099
:1012800010BD0146254A12784A434FF0E0235A61C7
:1012900000229A611A46126942F001021A6100BFE7
:1012A0004FF0E022106900F001021AB100F4803220
:1012B000002AF5D04FF0E022126922F001024FF02F
:1012C000E0231A6100229A6170470146144A12888D
:1012D0004A434FF0E0235A6100229A611A4612698C
:1012E00042F001021A6100BF4FF0E022106900F0E5
:1012F00001021AB100F48032002AF5D04FF0E0224A
:10130000126922F001024FF0E0231A6100229A6173
:10131000704700000C00002000127A00340000200A
:101320003600002010B50446052C1DD2DFE804F07D
:1013300003080D1217004FF4E060FFF709F913E0FE
:101340004FF4C060FFF704F90EE04FF4A060FFF720
:10135000FFF809E04FF48060FFF7FAF804E04FF47B
:101360004070FFF7F5F800BF00BF10BD014600BF99
:10137000704700BF494A128802F04002002AF9D0A3
:10138000C2B2464B1B1D1A80704710B586B004468A
:10139000012144F20400FFF765FC4FF40070ADF842
:1013A000140003208DF8160018208DF8170005A9E9
:1013B0003B48FFF79BF94FF48060ADF81400042020
:1013C0008DF8170005A93648FFF790F925208DF80C
:1013D000000003208DF801008DF8020001208DF837
:1013E00003006846FFF7B9F801940020ADF8080043
:1013F000ADF80A00ADF80C00ADF810000C20ADF807
:101400000E0001A92548FFF7D4FC012240F2255126
:101410002248FFF766FD01212048FFF756FD06B080
:1014200010BD10B540F225511C48FFF73FFE10B328
:101430001A48FFF7BBFDC4B21A48008800F4004008
:10144000C8B91848008800F4804060B10A2C03D065
:1014500000201449088020E01248008840F4004031
:101460001049088019E00D2C06D10E48008840F480
:1014700080400C49088010E00A480088C0F30D0045
:1014800009490C5407480088401C06490880084652
:101490000088C72801DD0020088010BD0038014009
:1014A00000080140380000209800002000F10801E9
:1014B00041604FF0FF31816000F10801C1600161BE
:1014C00000210160704700210161704742684A6055
:1014D00093688B60936859609160086103685B1C36
:1014E0000360704710B502460B685C1C0CB91069AC
:1014F00007E002F1080000E04068446824689C426C
:10150000FAD944684C604C68A160886041600A6107
:101510001468641C146010BD01460A69D1E90130E9
:101520009860D1E9010358605068884201D1886809
:101530005060002008611068401E106010687047FD
:1015400010B5002407E004EB8401FE4A02EB8100A1
:10155000FFF7ACFF641C052CF5D3FB48FFF7A6FF93
:10156000FA48FFF7A3FFFA48FFF7A0FFF948FFF793
:101570009DFFF948FFF79AFFF348F8490860F348E0
:10158000F749086010BD10B5044601F0D2F8F548DF
:101590000068401CF3490860F348006840B9F2480D
:1015A00004600846006801280DD1FFF7C9FF0AE072
:1015B000EE48006838B9EC480068C06AE16A8842C1
:1015C00001D8E9480460EA480068401CE84908601E
:1015D00094F82C1001208840E64909680843E54941
:1015E0000860E16A01EB8101D64A02EB8100211D0E
:1015F000FFF76CFF01F0ACF8DC48006868B1DA482E
:101600000068C06AE16A884207D24FF08050DA4928
:101610000860BFF34F8FBFF36F8F10BD2DE9FF5FE1
:1016200080460E469146DDE90E7A109CA9F1010034
:10163000216B01EB800B2BF0070B002507E0715DA0
:1016400004F134004155705D00B902E06D1C102DAD
:10165000F5D300BF002143200155052F00D30427F7
:10166000E762201DFFF72FFF04F11800FFF72BFFA3
:101670002461C7F10500A06164620020606484F801
:10168000480041465846039A01F027F82060BAF115
:10169000000F01D0CAF80040BDE8FF9F2DE9FF4FC1
:1016A00085B0804689461746DDE912ABB80000F0E8
:1016B00078FF064656B14C2000F073FF04460CB18B
:1016C000266304E0304600F0CAFF00E000247CB14D
:1016D0000020CDE900ABCDE902403A4649464046FC
:1016E000089BFFF79BFF2046FFF74DFF012501E018
:1016F0004FF0FF35284609B0BDE8F08F97490968DB
:10170000096809B9012100E0002121B14FF0FF3142
:101710009A4A116006E091490968C968C868974A01
:1017200041681160704710B50446206B00F097FFC8
:10173000204600F094FF10BD70B5054600F0F9FF9B
:1017400015B98948006800E028460446201DFFF7C7
:10175000E3FE78B9E06A00EB80007A4951F8200096
:1017600040B994F82C1001208840824909688143CF
:1017700080480160A06A18B104F11800FFF7CCFEA0
:101780007B480068401C7A490860774800688442BA
:1017900009D1211D6F48FFF799FE79480068401C68
:1017A0007749086009E06F480068401E6D4908608D
:1017B0002046FFF7B8FFFFF7A1FF00F0C9FF6B4815
:1017C000006858B168480068844207D14FF08050E3
:1017D00069490860BFF34F8FBFF36F8F70BD2DE96C
:1017E000F041002767480068002863D16648006818
:1017F000451C654805608DB95848D0F800805848A8
:101800000068564908605648C0F800805F48006884
:10181000401C5E490860FFF771FF00BF5748006831
:1018200085423BD300BF4D480068006808B90120DD
:1018300000E0002020B14FF0FF30504908602CE05C
:1018400046480068C068C4686668B54202D24B4822
:10185000066022E0201DFFF75FFEA06A18B104F1C8
:101860001800FFF759FE94F82C10012088404149D8
:10187000096808433F490860E16A01EB8101314A88
:1018800002EB8100211DFFF721FE3749E06A09685C
:10189000C96A8842C7D30127C5E700BF324800683C
:1018A000C06A00EB8000274951F82000012800D9C8
:1018B000012704E036480068401C35490860354877
:1018C000006800B101273846BDE8F08170B50024FA
:1018D000002600F02EFF2B480068401E29490860B2
:1018E0000846006800287BD11E480068002877D091
:1018F00024E01748C068C46804F11800FFF70CFE24
:10190000201DFFF709FE94F82C100120884019498A
:101910000968084317490860E16A01EB8101094A37
:1019200002EB8100211DFFF7D1FD0F49E06A096834
:10193000C96A884202D30120164908600448006839
:1019400050BB2AE060010020C4010020D801002023
:10195000EC010020000200201402002044000020BE
:101960004800002050000020400000205C000020C3
:101970006C0000205800002004ED00E07000002002
:101980004C00002078000020540000206800002057
:10199000600000206400002001E0012000E0002041
:1019A0000028A6D00CB1FFF7A9FEFD48056865B177
:1019B00000BFFFF714FF10B10120FA4908606D1E47
:1019C000002DF6D10020F6490860F648006838B1CD
:1019D00001263007F4490860BFF34F8FBFF36F8FC4
:1019E00000F0B6FE304670BD2DE9F04105460E46CA
:1019F000EE480768EE480068001DFFF78DFD50B9FE
:101A0000EB48006890F82C1001208840E9490968EB
:101A10008143E8480160681C38B936B1E448016880
:101A2000091DE548FFF752FD1AE07C19E0480068FF
:101A30004460BC4207D2DE480168091DDF480068E7
:101A4000FFF750FD0CE0DA480168091DDC4800682A
:101A5000FFF748FDDB480068844201D2D9480460A2
:101A6000BDE8F081D8480068401CD749086070473D
:101A70002DE9F047044688464FF00009FFF7F2FFD2
:101A8000CA480668206800EB08052068B04207D9FC
:101A90002068A8420BD9B54209D94FF0010906E0E8
:101AA0002068A84201D8B54201D94FF0010925604C
:101AB000B9F1000F03D0A81B0021FFF795FFFFF736
:101AC00005FF07463FB94FF08050B7490860BFF3A4
:101AD0004F8FBFF36F8FBDE8F08770B504460025C8
:101AE00044B1FFF7BFFF00212046FFF77DFFFFF75E
:101AF000EDFE05463DB94FF08050AB490860BFF39D
:101B00004F8FBFF36F8F70BD70B5044600F011FEAC
:101B100014B9A748006800E020460646F56A00F0C0
:101B200017FE284670BD70B5024600BFBF25EFF313
:101B3000118485F31188BFF34F8FBFF36F8F00BF00
:101B4000214612B99A4C246800E014462346D86A0C
:101B500000BF81F3118800BF70BD2DE9F0478046BA
:101B60000D464FF00009052D00D3042500F0E1FDDE
:101B7000B8F1000F02D18E48006800E040460446EC
:101B8000E66AAE4251D0B5420BD98948006884421A
:101B90000DD087480068C06AA84208D84FF00109F4
:101BA00005E083480068844201D14FF00109E76AEB
:101BB000E562A06900F0004010B9C5F10500A06120
:101BC00007EB8701814A02EB81016069884201D1FC
:101BD000012000E00020E0B1201DFFF79DFC30B99E
:101BE0000120B8407349096881437248016094F844
:101BF0002C10012088406F49096808436D4908602E
:101C0000E16A01EB8101714A02EB8100211DFFF7BE
:101C10005DFCB9F1000F07D04FF0805062490860B9
:101C2000BFF34F8FBFF36F8F00BF00F091FDBDE892
:101C3000F0876548006818B101205A4908601DE026
:101C40000020584908605B480068B0FA80F0C0F195
:101C50001F0101EB81025D4B03EB82004268526879
:101C6000426000F108024368934202D14268526820
:101C700042604268D2684E4B1A6000BF704770B530
:101C8000054600F056FD15B94948006800E02846B1
:101C90000446201DFFF740FC78B9E06A00EB8000A5
:101CA0004A4951F8200040B994F82C10012088408E
:101CB0004049096881433F480160A06A18B104F1B6
:101CC0001800FFF729FC211D3B48FFF7FFFB00F040
:101CD0003FFD3F48006828B100F02BFDFFF70EFDE7
:101CE00000F036FD32480068844217D13848006859
:101CF00040B14FF080502C490860BFF34F8FBFF3C5
:101D00006F8F0BE02C48006832490968884203D184
:101D100000202749086001E0FFF78BFF70BD10B578
:101D2000014600200A46244C5369A34201D10123F5
:101D300000E0002373B1284C936AA34201D1012330
:101D400000E0002333B9936A0BB9012300E00023BC
:101D500003B1012010BD70B505462C46F4B31448FC
:101D6000006884424BD000F0E4FC2046FFF7D7FF28
:101D7000A8B3201DFFF7D0FB94F82C100120884059
:101D80000C49096808430B490860E16A01EB8101CD
:101D90000E4A02EB8100211DFFF798FB04491FE06A
:101DA000600000206400002004ED00E054000020EA
:101DB00040000020580000201402002048000020AD
:101DC0004400002070000020780000206001002006
:101DD0005C00002050000020EC0100200FE00CE02F
:101DE000E06A0968C96A884207D34FF08050FE490B
:101DF0000860BFF34F8FBFF36F8F00F0A9FC70BD79
:101E00002DE9F04106460027344600BFBF21EFF31D
:101E1000118081F31188BFF34F8FBFF36F8F00BF25
:101E200005462046FFF77BFF20B3F0480068E0B985
:101E3000EF49E06A0968C96A884200D30127201D7A
:101E4000FFF76AFB94F82C1001208840E9490968E3
:101E50000843E8490860E16A01EB8101E64A02EBC8
:101E60008100211DFFF732FB04E004F11801E34873
:101E7000FFF72CFB00BF85F3118800BF3846BDE893
:101E8000F08170B523E0FFF7EDFDDD48006808B98B
:101E9000012000E000200546FFF718FDBDB900F065
:101EA00048FCD748C068C468201DFFF735FBD548FB
:101EB0000068401ED3490860D3480068401ED249DC
:101EC000086000F045FC2046FFF72DFC00BFCE481F
:101ED00000680028D7D170BD00BFFFF7D2FFC64809
:101EE00000680128F9D94FF08050BF490860BFF35E
:101EF0004F8FBFF36F8FF0E71CB5C44800210B462E
:101F00008022CDE90010C2A1C348FFF7C7FB0446F9
:101F1000012C14D100BFBF2080F31188BFF34F8F75
:101F2000BFF36F8F00BF4FF0FF30BC490860012046
:101F3000BB4908600020BB49086000F0E4FB1CBD01
:101F400010B500BFBF2080F31188BFF34F8FBFF3E0
:101F50006F8F00BF0020B249086000F0E9FB10BDA0
:101F6000B049086870470021AE4A10687047A5481C
:101F700000687047014611B99D48006800E00846B6
:101F8000024602F13400704770B505460C46984889
:101F9000016818312846FFF7A5FA01212046FFF70E
:101FA00023FD70BD70B506460C46154644F0004052
:101FB0008F49096888618E48016818313046FFF7FB
:101FC00085FA01212846FFF70FFD70BD70B5064662
:101FD000F068C46804F11800FFF79EFA83480068AF
:101FE000A8B9201DFFF798FA94F82C10012088401A
:101FF0008049096808437F490860E16A01EB810173
:102000007D4A02EB8100211DFFF760FA04E004F134
:1020100018017A48FFF75AFA7549E06A0968C96AEF
:10202000884204D9012501207F49086000E000258D
:10203000284670BD2DE9F04105460F4647F00040A7
:102040002860EC682846FFF767FA201DFFF764FA5E
:1020500094F82C10012088406649096808436549B6
:102060000860E16A01EB8101634A02EB8100211DF6
:10207000FFF72CFA5E49E06A0968C96A884204D908
:10208000012601206849086000E000263046BDE8CE
:10209000F0816649096801606249096841607047DA
:1020A00070B504460D4600F044FB5E48026828689F
:1020B000401C08B9002619E05C492068096888427C
:1020C00004D06068904201D801260FE06068101AC1
:1020D0002968884209D228686168511A401A286024
:1020E0002046FFF7D6FF002600E0012600F030FB77
:1020F000304670BD01204C49086070473C49096872
:1021000088693B490968C96AC1F10501384A126802
:102110009161704770B506460D4600F00AFB3448E1
:102120000068406C88B901203149096881F848008D
:102130005DB101212846FFF757FC4FF080502A4936
:102140000860BFF34F8FBFF36F8F00F001FB00F00B
:10215000F0FA27480068446C4CB126B100202449AD
:102160000968486403E0601E21490968486400204A
:102170001F49096881F8480000F0EAFA204670BD5E
:102180002DE9F0410746884614461D4600F0D1FA75
:102190001748006890F84800022818D014490968C8
:1021A00001F14400496CB9430160012010490968FC
:1021B00081F848005DB101212846FFF715FC4FF07A
:1021C000805009490860BFF34F8FBFF36F8F00F055
:1021D000BFFA00F0AEFA1CB105480068406C206000
:1021E0000348006824E0000004ED00E078000020CF
:1021F000400000205800002060010020EC01002079
:1022000000020020500000204C000020740000203C
:1022100049444C4500000000D91E00087000002011
:102220005C000020540000206400002068000020B2
:1022300090F84800012801D1002608E0A14909686A
:1022400001F14400496C21EA0801016001260020E7
:102250009C49096881F8480000F07AFA3046BDE8E8
:10226000F0812DE9F04781460D4616461F464FF096
:10227000010A4C4600F05DFA0FB1606C386094F8CA
:102280004880022084F84800052E17D2DFE806F0C7
:102290001503070B0D00606C284360640EE0606C52
:1022A000401C60640AE0656408E0B8F1020F01D0E8
:1022B000656401E04FF0000A00E000BF00BFB8F124
:1022C000010F22D1201DFFF727F994F82C100120CF
:1022D00088407D49096808437B490860E16A01EB51
:1022E00081017A4A02EB8100211DFFF7EFF8754961
:1022F000E06A0968C96A884207D94FF0805074497A
:102300000860BFF34F8FBFF36F8F00F021FA504684
:10231000BDE8F0872DE9F84F82460D4616461F4668
:10232000DDF828B001200090544600BFBF21EFF334
:10233000118081F31188BFF34F8FBFF36F8F00BF00
:1023400081460FB1606C386094F84880022084F8B0
:102350004800052E17D2DFE806F01503070B0D0025
:10236000606C284360640EE0606C401C60640AE0AE
:10237000656408E0B8F1020F01D0656401E0002057
:10238000009000E000BF00BFB8F1010F2DD151480F
:102390000068A8B9201DFFF7BFF894F82C100120A1
:1023A000884049490968084347490860E16A01EBE8
:1023B0008101464A02EB8100211DFFF787F804E006
:1023C00004F118014448FFF781F83E49E06A0968C2
:1023D000C96A884209D9BBF1000F03D00120CBF8AC
:1023E000000002E001203D49086000BF89F3118828
:1023F00000BF0098BDE8F88F2DE9F04105460E4674
:102400002C4600BFBF21EFF3118081F31188BFF389
:102410004F8FBFF36F8F00BF074694F848800220AC
:1024200084F84800606C401C6064B8F1010F2AD148
:1024300028480068A8B9201DFFF76EF894F82C1002
:10244000012088402049096808431F490860E16A63
:1024500001EB81011D4A02EB8100211DFFF736F8D7
:1024600004E004F118011C48FFF730F81549E06A50
:102470000968C96A884206D916B10120306002E0B5
:1024800001201649086000BF87F3118800BFBDE82E
:10249000F08170B5054615B90A48006800E0284685
:1024A000064600F046F996F84800022804D10020BC
:1024B00086F84800012400E0002400F049F9204695
:1024C00070BD000040000020580000206001002086
:1024D00004ED00E078000020EC0100206400002002
:1024E00010B50146714800E0006803688B42FBD3D9
:1024F0000246436813448B4204D143684C6823442A
:10250000436001460A464B6813440468A34211D154
:10251000674C03682468A34208D04B680468646869
:1025200023444B6003681B680B6005E0604B1B682D
:102530000B6001E003680B60884200D0016010BDB1
:1025400030B54FF488435B4800F007042CB1C01D40
:1025500020F00700574C041B1B1B0246534C226003
:102560000024524D6C60D018083820F00700504C01
:10257000206000244E4D2D686C604D4D2D682C6000
:102580001146441A4C604A4C24680C604A4D4C6811
:102590002C604A4D4C682C604FF00044484D2C6034
:1025A00030BD2DE9F04105464FF00008FFF75AFA1B
:1025B0003F48006808B9FFF7C3FF4148006828405A
:1025C000002847D145B1083505F0070020B105F0D6
:1025D0000700C0F108000544002D3BD037480068D3
:1025E000854237D8314E3046046801E026462468DB
:1025F0006068A84202D220680028F7D12C48006801
:10260000844227D0306800F1080820683060606894
:10261000401B102807D967196068401B7860656007
:102620003846FFF75DFF254960680968081A2349A5
:1026300008600846006820490968884203D21F489C
:1026400000681D4908601E496068096808436060A9
:1026500000202060FFF73AF94046BDE8F08170B5F0
:1026600006463546D6B1083D2C46154960680968CE
:10267000084098B1206888B91149606809688843A2
:102680006060FFF7EFF90D496068096808440B497D
:1026900008602046FFF724FFFFF718F970BD0748D0
:1026A0000068704704480068704770477C0000204D
:1026B00084000020280200208C00002088000020D8
:1026C0009000002000BFBF2080F31188BFF34F8F20
:1026D000BFF36F8F00BF00BFFEE7001F4FF0807396
:1026E0000360001F21F001030360001F2B4B0360F8
:1026F000143802602038704729484FF0E0214861C3
:1027000007200861704710B52648006840F47F0034
:10271000244908600846006840F07F400860FFF7E1
:10272000EBFF002020490860FDF740FD002010BDB0
:10273000704700BFBF2080F31188BFF34F8FBFF3F6
:102740006F8F00BF18480068401C17490860704729
:1027500015480068401E144908600846006820B902
:10276000002080F3118800BF00BF704710B500BF84
:10277000BF2080F31188BFF34F8FBFF36F8F00BF6F
:10278000FFF72DF820B14FF0805006491C39086042
:1027900000BF002080F3118800BF10BDC5260008CF
:1027A0003F19010020ED00E0940000200FB408B5AF
:1027B0009DF824000121FEF755FABDF82600ADF87A
:1027C00000009DF828008DF802009DF829008DF882
:1027D0000300694602A8FDF789FF01B05DF814FB0C
:1027E0000FB470B5DDE90B452A46214604A8FEF773
:1027F0002EF870BC5DF814FB0FB410B5099C21468F
:1028000002A8FEF713F810BC5DF814FB10B5012008
:10281000FEF704FD10B10120FEF711FD10BD704759
:102820000FB4044910B503AA029800F009F810BCCF
:102830005DF814FB3C0000207047704770477047FC
:10284000074B70B50D467B4400F011F8044628464E
:1028500000F020F810B14FF0FF3070BD204670BD81
:1028600029EBFFFF01694A1C02610878704700B537
:102870008FB0CDE901310021059105497944CDE9B9
:1028800003101146684600F02EF80FB000BD00009E
:10289000E5FFFFFF007B00F080007047754600F009
:1028A0003FF8AE4605006946534620F007008546CE
:1028B00018B020B5FDF73AFEBDE820404FF0000605
:1028C0004FF000074FF000084FF0000B21F0070118
:1028D000AC46ACE8C009ACE8C009ACE8C009ACE85B
:1028E000C0098D4670472DE9F04106460024D6E91F
:1028F0000170F5688046304603E04146B847641CE5
:102900003046A8470028F8D12046BDE8F08110B530
:102910000446AFF300802046BDE81040FDF72DBC13
:102920000048704728460020482900080000002081
:102930009800000028010008E02900089800002005
:10294000F04B0000440100080000000000000000FF
:102950000000000000A24A04000000000000000087
:102960000102030406070809000000000102030435
:10297000010203040607080902040608000000001B
:102980000000000000000000000000000000000047
:102990000000000000000000000000000000000037
:1029A0000000000000000000000000000000000027
:1029B0000000000000000000000000000000000017
:1029C0000000000000000000000000000000000007
:1029D000000000000000000000000000AAAAAAAA4F
:04000005080000ED02
:00000001FF
